:100000007FC0000098C0000096C0000094C00000AF
:1000100092C0000090C000008EC000008CC00000A4
:100020008AC0000088C0000086C00000B4C2000082
:100030005BC3000080C000007EC000007CC00000E8
:100040007AC0000078C0000076C0000074C00000D4
:1000500072C0000070C000006EC000006CC00000E4
:100060006AC0000068C0000066C0000064C00000F4
:1000700062C000001C034C005500460041002000F7
:100080004300440043002000440065006D006F0001
:10009000000018034400650061006E00200043006A
:1000A00061006D0065007200610000000403090436
:1000B00009023E00020100C03209040000010202F0
:1000C0000100052400100104240206052406000195
:1000D000070582030800FF09040100020A0000006E
:1000E0000705040210000507058302100005120130
:1000F000100102000008EB03442001000102DC01B2
:1001000011241FBECFEFD2E0DEBFCDBF11E0A0E0D3
:10011000B1E0EAE6FDE002C005900D92AC31B10716
:10012000D9F711E0ACE1B1E001C01D92A733B107EE
:10013000E1F717D018C664CF84B7877F84BF88E102
:100140000FB6F89480936000109260000FBE90E0AC
:1001500080E80FB6F89480936100909361000FBE21
:100160000BC2EADF6CE171E080E091E038D5789471
:1001700080E091E0FED480E091E0E5D442D4F8CF75
:100180000895089580E091E058C480E091E03BC577
:10019000292F33272230310559F02330310569F0FA
:1001A00021303105F9F482E190E02EEE30E01EC0FE
:1001B0008EE390E020EB30E019C099278130910563
:1001C00041F08230910541F0892B61F4ECEAF0E0D6
:1001D00005C0E2E9F0E002C0E4E7F0E0849190E0DD
:1001E0009F0104C080E090E020E030E0FA0131831C
:1001F0002083089520913501309136012617370765
:1002000048F06115710539F42091E8002E772093AC
:10021000E80001C0B90120E061157105D1F130910C
:100220002E01332309F443C0353009F442C0309124
:10023000E80033FD40C03091E80032FF06C08091F5
:10024000E80082FF29C080E008953091E80030FF87
:10025000E3CF2091F20030E0FC01281B390BCF01E5
:10026000820F931F6115710549F08830910530F4B4
:1002700081918093F10061507109F1CF21E00897DD
:1002800009F020E08091E8008E778093E800CF01AC
:10029000C3CF2111C4CFD3CF80912E01882339F051
:1002A000853039F08091E80083FFC9CF04C082E037
:1002B000089583E0089581E00895209135013091FB
:1002C00036012617370748F06115710539F420917A
:1002D000E8002E772093E80001C0B90120E0611505
:1002E0007105D9F130912E01332309F444C0353022
:1002F00009F443C03091E80033FD41C03091E8007B
:1003000032FF06C08091E80082FF2AC080E0089595
:100310003091E80030FFE3CF2091F20030E0FC01A3
:10032000281B390BC9018E0F9F1F6115710551F0F4
:100330008830910538F484918093F10031966150B2
:100340007109F0CF21E0089709F020E08091E800E2
:100350008E778093E800CF01C2CF2111C3CFD2CFD7
:1003600080912E01882339F0853039F08091E800A2
:1003700083FFC8CF04C082E0089583E0089581E040
:100380000895982F953058F59093E900981739F013
:100390007091EC002091ED005091F00003C0242FEB
:1003A000762F50E021FF19C03091EB003E7F309353
:1003B000EB003091ED003D7F3093ED003091EB008C
:1003C00031603093EB007093EC002093ED0050937C
:1003D000F0002091EE0027FF07C09F5FD3CF8F7002
:1003E0008093E90081E0089580E008950F931F93C2
:1003F000CF93DF93062FEC0110E0101769F198817D
:10040000992339F12C81E981FA816B81892F8F70D1
:10041000853010F080E021C0223010F056E001C09D
:1004200052E028E030E040E02E173F0720F44F5F15
:10043000220F331FF9CF4295407F452B991F9927F3
:10044000991F6295660F660F607C692B9ADF88237F
:1004500009F31F5F2596D1CF81E0DF91CF911F91E6
:100460000F91089580912F0187FD05C08091E800CC
:1004700080FF0EC012C08091E80082FD05C080910F
:100480002E018111F8CF08958091E8008B7708C084
:1004900080912E018111EACF08958091E8008E7736
:1004A0008093E80008958091E4009091E50045E68E
:1004B0002091EC0020FF21C02091E80020FD21C008
:1004C00020912E01222389F0253089F02091EB0024
:1004D00025FD0FC02091E4003091E5002817390771
:1004E00039F3415041F0C901E3CF82E0089583E040
:1004F000089581E0089584E008952091E80022FFA6
:10050000DFCF80E0089541D043D08091D8008F772D
:100510008093D8008091D80080688093D800809123
:10052000D8008F7D8093D80084E089BD86E089BDA6
:1005300009B400FEFDCF10922E0110922A011092F4
:100540002C0110922B0142E060E080E01ADF8091E4
:10055000E1008E7F8093E1008091E20081608093D2
:10056000E2008091E20088608093E2008091E000E8
:100570008E7F8093E0000895E3E6F0E080818E7F37
:10058000808381E080932D01BECF1092E200089518
:100590001092E10008951F920F920FB60F9211244E
:1005A0002F933F934F935F936F937F938F939F937B
:1005B000AF93BF93EF93FF938091E10082FF0AC056
:1005C0008091E20082FF06C08091E1008B7F8093E2
:1005D000E10016D28091E10080FF17C08091E20017
:1005E00080FF13C08091E2008E7F8093E2008091B3
:1005F000E20080618093E2008091D8008062809365
:10060000D80019BC10922E01BCDD8091E10084FF5E
:100610002FC08091E20084FF2BC084E089BD86E07A
:1006200089BD09B400FEFDCF8091D8008F7D8093F5
:10063000D8008091E1008F7E8093E1008091E200FC
:100640008F7E8093E2008091E20081608093E200DF
:1006500080912A01882311F084E007C08091E30093
:1006600087FF02C083E001C081E080932E0188DD16
:100670008091E10083FF27C08091E20083FF23C0C7
:100680008091E100877F8093E10082E080932E01DA
:1006900010922A018091E1008E7F8093E100809189
:1006A000E2008E7F8093E2008091E200806180937F
:1006B000E20042E060E080E064DE8091F00088606B
:1006C0008093F0009DD1FF91EF91BF91AF919F91E9
:1006D0008F917F916F915F914F913F912F910F90EB
:1006E0000FBE0F901F9018951F920F920FB60F928A
:1006F00011242F933F934F935F936F937F938F9327
:100700009F93AF93BF93CF93EF93FF93C091E90073
:10071000CF708091EC001092E9008091F000877F0B
:100720008093F00078941BD01092E9008091F00043
:1007300088608093F000C093E900FF91EF91CF9122
:10074000BF91AF919F918F917F916F915F914F91E9
:100750003F912F910F900FBE0F901F9018951F93F0
:10076000CF93DF93CDB7DEB7AA970FB6F894DEBF6D
:100770000FBECDBFEFE2F1E08091F100819321E067
:10078000E733F207C9F701DD8091E80083FF20C15C
:1007900090912F0180913001853009F477C030F4B9
:1007A000813081F168F0833069F112C1883009F439
:1007B000E1C0893009F4F0C0863009F009C188C071
:1007C000903881F0923809F003C1809133018F7025
:1007D0008093E9008091EB0085FB882780F91092D7
:1007E000E90006C080912B0190912C01911182604B
:1007F0009091E800977F9093E8008093F100109229
:10080000F100C3C0292F2D7F09F0E2C0992319F010
:10081000923061F0DDC090913101913009F0D8C083
:10082000833009F090E090932C012AC0909131011F
:10083000911126C0209133012F7009F4C9C0209373
:10084000E9009091EB0090FF1BC0833021F4809170
:10085000EB00806213C08091EB0080618093EB001D
:1008600081E090E0022E01C0880F0A94EAF780939D
:10087000EA001092EA008091EB0088608093EB0020
:100880001092E9008091E800877F82C09111A0C09A
:10089000109131011F778091E3008078812B809344
:1008A000E3008091E800877F8093E800DBDD8091A2
:1008B000E80080FFFCCF8091E30080688093E30034
:1008C000112311F083E001C082E080932E0180C0EB
:1008D0009058923008F07CC08091310190913201A3
:1008E0008C3D23E0920771F583E08A838AE2898355
:1008F0004FB7F894DE01139620E03EE051E2E32F7B
:10090000F0E050935700E49120FF03C0E295EF70B0
:100910003F5FEF708E2F90E0EA3010F0C79601C075
:10092000C0968D939D932F5F243149F74FBF8091DF
:10093000E800877F8093E8006AE270E0CE010196CC
:1009400059DC12C0AE014F5F5F4F6091330120DC74
:10095000009709F43DC02091E800277F2093E8002C
:10096000BC0189819A81A9DC8091E8008B77809312
:10097000E8002EC0903861F58091E800877F809371
:10098000E80080912A018093F1008091E8008E7741
:100990008093E80067DD1CC091111AC0909131016D
:1009A0009230B0F48091E800877F8093E8009093C4
:1009B0002A0158DD80912A01811104C08091E30051
:1009C00087FF02C084E001C081E080932E01DADB62
:1009D0008091E80083FF0AC08091E800877F8093C0
:1009E000E8008091EB0080628093EB00AA960FB63E
:1009F000F894DEBF0FBECDBFDF91CF911F91089558
:100A00000895CF9380912E018823A9F08091E90069
:100A10008F709091EC0090FF02C090E801C090E0D0
:100A2000C92FC82B1092E9008091E80083FD97DE62
:100A3000CF70C093E900CF910895CF93DF93EC017D
:100A4000FC0170968BE0DF011D928A95E9F782E048
:100A50008C83898783E08E8761E0CE010196C6DCB6
:100A6000882361F061E0CE010696C0DC882331F076
:100A700061E0CE010B96DF91CF91B8CC80E0DF91A1
:100A8000CF910895CF93C62F20912E012430F1F4F9
:100A9000FC014489558966897789452B462B472B6C
:100AA000A9F081818F708093E9008091E80085FF33
:100AB00004C0C093F10080E00AC08091E8008E7706
:100AC0008093E800F0DC8823A1F301C082E0CF919D
:100AD0000895FB01682F84859585D4DF21E030E0FF
:100AE000811102C020E030E088279927821B930BF8
:100AF000089520912E01243021F5FC014489558967
:100B000066897789452B462B472BD9F081818F70D9
:100B10008093E9008091F200882389F09091E800A9
:100B20008091E8008E778093E80095FD08C0BBDCDB
:100B3000811108C08091E8008E778093E80080E002
:100B4000089582E0089520912E01243089F4FC015B
:100B50004489558966897789452B462B472B41F077
:100B600021812F702093E9002091E80020FDC1CF62
:100B7000089520912E01243019F08FEF9FEF0895F2
:100B8000FC014489558966897789452B462B472B7B
:100B9000A1F386818F708093E9008091E80082FF45
:100BA000ECCF8091F200882321F02091F10030E019
:100BB00002C02FEF3FEF8091F200811105C08091BC
:100BC000E8008B778093E800C9010895FC018485D3
:100BD0009585CFDF97FF02C08EEF9FEF0895FB0151
:100BE0002EE0DB011D922A95E9F723E0238329E615
:100BF00035E03187208726EE35E0338722879587D9
:100C0000848708950895CF93DF93EC018091E800E5
:100C100083FFA6C0888190E0209133013091340198
:100C20002817390709F09CC080913001813261F0AA
:100C300020F4803209F43EC093C0823209F46CC0C3
:100C4000833209F47DC08CC080912F01813A09F074
:100C500087C08091E800877F8093E8008091E8005A
:100C600080FFFCCF4C895D896E897F894093F100BC
:100C7000BB27A72F962F852F8093F100CB01AA27A2
:100C8000BB278093F100472F55276627772740938E
:100C9000F100888D8093F100898D8093F1008A8D19
:100CA0008093F1008091E8008E778093E800DF91D7
:100CB000CF91D8CB80912F01813209F051C0809122
:100CC000E800877F8093E8008091E80082FD05C0FE
:100CD00080912E018111F8CF43C03091F100209115
:100CE000F1009091F1008091F1003C8B2D8B9E8B57
:100CF0008F8B8091F100888F8091F100898F809196
:100D0000F1008A8F8091E8008B778093E800AADB5E
:100D1000CE01DF91CF9176CF80912F01813201F505
:100D20008091E800877F8093E8009CDB809131010F
:100D300090913201998B888BCE01DF91CF9162CF58
:100D400080912F01813261F48091E800877F809348
:100D5000E80088DB60913101CE01DF91CF9152CF65
:0A0D6000DF91CF910895F894FFCFC2
:100D6A000083100000010410000001820800000145
:0C0D7A000000000000000000000000006D
:00000001FF
