:100000008CC00000A5C00000A3C00000A1C000007B
:100010009FC000009DC000009BC0000099C0000070
:1000200097C0000095C0000093C0000030C40000DD
:10003000D7C400008DC000008BC0000089C0000044
:1000400087C0000085C0000083C0000081C00000A0
:100050007FC00000D6C100007BC0000079C0000056
:1000600077C0000075C0000073C0000071C00000C0
:100070006FC000002003540065006B005600500064
:100080004900200045007800700061006E006400A7
:100090006500720000002E034F0053005500200041
:1000A000530065006E0069006F007200200044007C
:1000B00065007300690067006E00200032003000A8
:1000C0003100350000000403090409023E0002016A
:1000D00000C03209040000010202010005240010E2
:1000E0000104240206052406000107058203080016
:1000F000FF09040100020A000000070504021000C5
:100100000507058302100005120110010200000816
:10011000EB03442001000102DC0111241FBECFEFDC
:10012000D2E0DEBFCDBF11E0A0E0B1E0E0E0FFE053
:1001300002C005900D92AE31B107D9F711E0AEE1E2
:10014000B1E001C01D92AE33B107E1F7BDD1D6C613
:1001500057CF8AB188678AB98AB187608AB93A9AD3
:100160000895813081F028F08230B9F08330F9F0C1
:100170000895611103C05E98429A0895613001F5B7
:100180005E9A42980895611103C05D98589A089547
:100190006130B1F45D9A58980895611103C05C987C
:1001A000599A0895613061F45C9A599808956111E3
:1001B00003C05B985A9A0895613011F45B9A5A987B
:1001C0000895813049F028F0823049F0833051F0B1
:1001D00008955E98429808955D98589808955C989F
:1001E000599808955B985A98089580E0EADF81E075
:1001F000E8DF82E0E6DF83E0E4CF9BB18FE7892789
:100200008BB998B184E0892788B9089584B1806F4B
:1002100084B987B1806F87B90895813049F030F093
:10022000823041F0833039F42F9A05C02C9A03C0F4
:100230002D9A01C02E9A90911C01981304C084E05D
:1002400080931C01089590911B01981303C084E0D2
:1002500080931B01089585B1806F85B984E08093F8
:100260001C0180931B010895811107C080911C011E
:10027000D4DF84E080931C010895813031F48091B3
:100280001B01CBDF84E080931B0108951F93CF9364
:10029000DF931F92CDB7DEB7182F862F6983E4DF77
:1002A00069811130A9F028F01230F9F0133031F1E2
:1002B00034C02C98611105C04498469810921C01D6
:1002C0002EC06130B1F5449A479A10921B0133C099
:1002D0002D98611103C0449A469815C0613049F5C4
:1002E0004498479A60931B0126C02E98611102C062
:1002F000459808C06130E9F4459A0BC02F98611108
:1003000005C0459A469A10931C0109C0613089F4D2
:100310004598479810931B010EC061110AC0909137
:100320001B0180911C0198130FC084E080931B0176
:100330000BC0613049F490911C0180911B0198130E
:1003400003C084E080931C010F90DF91CF911F9137
:100350000895873451F168F4833401F128F481342D
:10036000C1F08234C1F008958534D1F0E0F460E04A
:1003700020C08A3411F128F48834D1F08934D9F0BE
:1003800008958A35F1F08B36D1F08C34D9F483E0BE
:1003900017C060E006C060E081E078CF60E006C092
:1003A00061E080E0FACF61E0F7CF61E082E0F5CF75
:1003B00061E083E0F2CF80E003C081E001C082E031
:1003C0002CCF49CF089514BC15BC81E080936E00FA
:1003D000089584B7877F84BF88E10FB6F89480932F
:1003E0006000109260000FBE90E080E80FB6F894B5
:1003F00080936100909361000FBEE5DF39D2A9DEE2
:1004000005CF1F920F920FB60F9211242F933F9397
:100410004F935F936F937F938F939F93AF93BF930C
:10042000EF93FF93809122018F5F809322018F7160
:1004300009F4E3DEFF91EF91BF91AF919F918F910E
:100440007F916F915F914F913F912F910F900FBED0
:100450000F901F9018951F93CF93DF931F92CDB7E6
:10046000DEB7162F8983C1DE8981813059F038F0DB
:10047000823059F0833061F460E083E008C060E0CE
:1004800080E005C060E081E002C060E082E069DEFB
:10049000113059F038F0123059F0133081F461E026
:1004A00083E008C061E080E005C061E081E002C057
:1004B00061E082E00F90DF91CF911F9152CE0F90BB
:1004C000DF91CF911F91089584DF8FDEC4DE63E258
:1004D00071E080E091E0FFD4789480E091E0A0D4D6
:1004E000892B49F080E091E0C0D433DF60911B019B
:1004F00080911C01B0DF80E091E07CD4FED3EDCF91
:10050000292F33272230310559F02330310569F086
:1005100021303105F9F482E190E028E031E01EC09D
:100520008EE390E02AEC30E019C0992781309105E4
:1005300041F08230910541F0892B61F4E6ECF0E066
:1005400005C0E6E9F0E002C0E4E7F0E0849190E065
:100550009F0104C080E090E020E030E0FA013183A8
:100560002083089520913C0130913D0126173707E3
:1005700048F06115710539F42091E8002E77209339
:10058000E80001C0B90120E061157105D1F1309199
:100590003501332309F443C0353009F442C03091AA
:1005A000E80033FD40C03091E80032FF06C0809182
:1005B000E80082FF29C080E008953091E80030FF14
:1005C000E3CF2091F20030E0FC01281B390BCF0172
:1005D000820F931F6115710549F08830910530F441
:1005E00081918093F10061507109F1CF21E008976A
:1005F00009F020E08091E8008E778093E800CF0139
:10060000C3CF2111C4CFD3CF80913501882339F0D6
:10061000853039F08091E80083FFC9CF04C082E0C3
:10062000089583E0089581E0089520913C01309180
:100630003D012617370748F06115710539F42091FF
:10064000E8002E772093E80001C0B90120E0611591
:100650007105D9F130913501332309F444C03530A7
:1006600009F443C03091E80033FD41C03091E80007
:1006700032FF06C08091E80082FF2AC080E0089522
:100680003091E80030FFE3CF2091F20030E0FC0130
:10069000281B390BC9018E0F9F1F6115710551F081
:1006A0008830910538F484918093F100319661503F
:1006B0007109F0CF21E0089709F020E08091E8006F
:1006C0008E778093E800CF01C2CF2111C3CFD2CF64
:1006D00080913501882339F0853039F08091E80028
:1006E00083FFC8CF04C082E0089583E0089581E0CD
:1006F0000895982F953058F59093E900981739F0A0
:100700007091EC002091ED005091F00003C0242F77
:10071000762F50E021FF19C03091EB003E7F3093DF
:10072000EB003091ED003D7F3093ED003091EB0018
:1007300031603093EB007093EC002093ED00509308
:10074000F0002091EE0027FF07C09F5FD3CF8F708E
:100750008093E90081E0089580E00895809136015A
:1007600087FD05C08091E80080FF0EC012C0809117
:10077000E80082FD05C0809135018111F8CF089510
:100780008091E8008B7708C0809135018111EACF14
:1007900008958091E8008E778093E8000895809115
:1007A000E4009091E50045E62091EC0020FF21C097
:1007B0002091E80020FD21C020913501222389F0FD
:1007C000253089F02091EB0025FD0FC02091E40039
:1007D0003091E5002817390739F3415041F0C9013C
:1007E000E3CF82E0089583E0089581E0089584E0F6
:1007F00008952091E80022FFDFCF80E0089541D0E6
:1008000043D08091D8008F778093D8008091D80012
:1008100080688093D8008091D8008F7D8093D80025
:1008200084E089BD86E089BD09B400FEFDCF109249
:10083000350110923101109233011092320142E0E1
:1008400060E080E056DF8091E1008E7F8093E100E0
:100850008091E20081608093E2008091E2008860F4
:100860008093E2008091E0008E7F8093E000089505
:10087000E3E6F0E080818E7F808381E08093340125
:10088000BECF1092E20008951092E10008951F92E9
:100890000F920FB60F9211242F933F934F935F93B4
:1008A0006F937F938F939F93AF93BF93EF93FF9338
:1008B0008091E10082FF0AC08091E20082FF06C0C1
:1008C0008091E1008B7F8093E10016D28091E1005E
:1008D00080FF17C08091E20080FF13C08091E2008A
:1008E0008E7F8093E2008091E20080618093E2003D
:1008F0008091D80080628093D80019BC1092350195
:10090000FBD18091E10084FF2FC08091E20084FF41
:100910002BC084E089BD86E089BD09B400FEFDCF0F
:100920008091D8008F7D8093D8008091E1008F7EE8
:100930008093E1008091E2008F7E8093E2008091BD
:10094000E20081608093E20080913101882311F000
:1009500084E007C08091E30087FF02C083E001C00C
:1009600081E080933501C8D18091E10083FF27C0E9
:100970008091E20083FF23C08091E100877F809314
:10098000E10082E080933501109231018091E10015
:100990008E7F8093E1008091E2008E7F8093E20061
:1009A0008091E20080618093E20042E060E080E0BC
:1009B000A0DE8091F00088608093F0009DD1FF91CF
:1009C000EF91BF91AF919F918F917F916F915F91C7
:1009D0004F913F912F910F900FBE0F901F90189540
:1009E0001F920F920FB60F9211242F933F934F93A4
:1009F0005F936F937F938F939F93AF93BF93CF93A7
:100A0000EF93FF93C091E900CF708091EC001092BA
:100A1000E9008091F000877F8093F00078941BD0EC
:100A20001092E9008091F00088608093F000C093FC
:100A3000E900FF91EF91CF91BF91AF919F918F917D
:100A40007F916F915F914F913F912F910F900FBECA
:100A50000F901F9018951F93CF93DF93CDB7DEB7FC
:100A6000AA970FB6F894DEBF0FBECDBFE6E3F1E064
:100A70008091F100819321E0EE33F207C9F73CD178
:100A80008091E80083FF20C1909136018091370169
:100A9000853009F477C030F4813081F168F083301B
:100AA00069F112C1883009F4E1C0893009F4F0C05D
:100AB000863009F009C188C0903881F0923809F079
:100AC00003C180913A018F708093E9008091EB001F
:100AD00085FB882780F91092E90006C080913201D9
:100AE00090913301911182609091E800977F9093EB
:100AF000E8008093F1001092F100C3C0292F2D7FF0
:100B000009F0E2C0992319F0923061F0DDC09091B4
:100B10003801913009F0D8C0833009F090E090930B
:100B200033012AC090913801911126C020913A01D9
:100B30002F7009F4C9C02093E9009091EB0090FF59
:100B40001BC0833021F48091EB00806213C0809140
:100B5000EB0080618093EB0081E090E0022E01C009
:100B6000880F0A94EAF78093EA001092EA008091D5
:100B7000EB0088608093EB001092E9008091E80020
:100B8000877F82C09111A0C0109138011F7780919A
:100B9000E3008078812B8093E3008091E800877FD9
:100BA0008093E800DBDD8091E80080FFFCCF80913E
:100BB000E30080688093E300112311F083E001C01B
:100BC00082E08093350180C09058923008F07CC05C
:100BD00080913801909139018C3D23E0920771F5A5
:100BE00083E08A838AE289834FB7F894DE01139603
:100BF00020E03EE051E2E32FF0E050935700E49113
:100C000020FF03C0E295EF703F5FEF708E2F90E002
:100C1000EA3010F0C79601C0C0968D939D932F5F68
:100C2000243149F74FBF8091E800877F8093E80027
:100C30006AE270E0CE01019695DC12C0AE014F5F12
:100C40005F4F60913A015CDC009709F43DC0209150
:100C5000E800277F2093E800BC0189819A81E5DCC8
:100C60008091E8008B778093E8002EC0903861F582
:100C70008091E800877F8093E80080913101809324
:100C8000F1008091E8008E778093E80067DD1CC05A
:100C900091111AC0909138019230B0F48091E8001F
:100CA000877F8093E8009093310158DD8091310176
:100CB000811104C08091E30087FF02C084E001C07D
:100CC00081E08093350118D08091E80083FF0AC04D
:100CD0008091E800877F8093E8008091EB0080623C
:100CE0008093EB00AA960FB6F894DEBF0FBECDBF7F
:100CF000DF91CF911F9108950895CF938091350191
:100D00008823A9F08091E9008F709091EC0090FF0A
:100D100002C090E801C090E0C92FC82B1092E900F2
:100D20008091E80083FD97DECF70C093E900CF91FA
:100D30000895CF93C62F209135012430F1F4FC01A2
:100D40004489558966897789452B462B472BA9F01D
:100D500081818F708093E9008091E80085FF04C055
:100D6000C093F10080E00AC08091E8008E77809304
:100D7000E80015DD8823A1F301C082E0CF9108953A
:100D8000FB01682F84859585D4DF21E030E0811157
:100D900002C020E030E088279927821B930B08953A
:100DA00020913501243021F5FC014489558966895B
:100DB0007789452B462B472BD9F081818F70809303
:100DC000E9008091F200882389F09091E8008091F9
:100DD000E8008E778093E80095FD08C0E0DC811183
:100DE00008C08091E8008E778093E80080E0089545
:100DF00082E0089520913501243089F4FC01448972
:100E0000558966897789452B462B472B41F02181EF
:100E10002F702093E9002091E80020FDC1CF0895B4
:100E2000209135012430D1F4FC014489558966892B
:100E30007789452B462B472B89F086818F708093CD
:100E4000E9008091E80082FF09C08091F2008111E1
:100E500008C08091E8008B778093E80080E090E004
:100E600008958091F20090E008952091350124309A
:100E700019F08FEF9FEF0895FC0144895589668929
:100E80007789452B462B472BA1F386818F70809362
:100E9000E9008091E80082FFECCF8091F200882386
:100EA00021F02091F10030E002C02FEF3FEF809160
:100EB000F200811105C08091E8008B778093E800F3
:100EC000C9010895FC0184859585CFDF97FF02C095
:100ED0008EEF9FEF0895FB012EE0DB011D922A9516
:100EE000E9F723E0238320EC36E03187208722E6F0
:100EF00037E033872287958784870895F894FFCF5A
:100F000000831000000104100000018208000001AD
:0E0F10000000000000000000000000040400CB
:00000001FF
